:020000040800F2
:1000000000800020090A0008550A0008550A000867
:1000100000000000000000000000000000000000E0
:10002000000000000000000000000000550A000869
:100030000000000000000000550A000849150008F3
:10004000550A0008550A0008550A0008550A000814
:10005000550A0008550A0008550A0008550A000804
:10006000550A00081D030008550A0008A9120008D7
:10007000550A0008550A0008550A0008550A0008E4
:10008000550A0008550A0008550A0008550A0008D4
:10009000550A0008550A0008550A0008550A0008C4
:1000A000550A0008550A0008550A0008550A0008B4
:1000B000550A000800000000DD0B000800000000E9
:1000C0005FF808F110B54160040001F083FA206088
:1000D00010BD10B5040001F07DFA2368C31A6068F2
:1000E000013398428041404210BD634630B55A68A2
:1000F0009C681D68A21A01320021AA4205D2621C26
:100100009A6020709B6819700131080030BD30B5CD
:100110006446236865685A1EA3685B1BD31A8B422A
:1001200000D90B00C118A268884203D10021180031
:10013000117030BD551CA560057801301570F2E7CF
:10014000F7B500260F001C00B04201DA404201362C
:100150006123002A00D041232500DBB20A3B019332
:10016000390001F0C3FA019BCAB2D318DBB20929E6
:1001700002D813003033DBB26A1C2B70002814D174
:1001800030256042089F811813008F420FD8002E3F
:1001900002D02D221A7001330022181B1A70420857
:1001A000A218013BA24205D1FEBD1500D8E715708B
:1001B0000132E7E721781D78257019700134F0E7E6
:1001C00070B515008EB01C0012AB0793059004911A
:1001D0000690069B28780293059B0393039A029B43
:1001E000991A00281AD0049A4B1C0292934215D2F5
:1001F000252805D0013504AB9C46FFF776FFE8E7DC
:10020000687830280DD000230235642826D013D812
:10021000582832D0632838D00028ECD108000EB01E
:1002200070BDAB78002BF9D0303BDBB2092B00D985
:100230000023E8780435E8E775280FD078281CD02B
:100240007328D8D12068261D0300191A01335A1EBD
:100250001278002AF9D104AB9C460BE000220A2157
:100260000093261D08AB2068FFF76AFF04AB9C468D
:10027000010008A8FFF74BFF0EE058380093261D39
:100280004242424108AB1021EDE7206804ABC0B206
:100290009C46261DFFF729FF34009AE70CB407B5EA
:1002A00004AB04CB0193FFF78BFF03B008BC02B093
:1002B0001847000070B5114B114C124D256023609A
:1002C000114BA36007236360104B236001F06AF9B0
:1002D00000F096FE01F01AF90D48002100F024FF0D
:1002E0000C4801F025F900F0A3FE0028FBDC0A4AC7
:1002F0001368013313602560F5E7C04655550000CB
:1003000000300040AAAA0000FF0F0000CCCC000083
:10031000700000205C1A00089C0000200123204A85
:1003200070B551681F480B4353602826845F26230D
:10033000C15E1D4D1D4B69434288654384885A4305
:1003400063438A18ED18D117EB1749045B04490C75
:100350005B0C89185B19C913DB130AB21CB289B292
:100360009BB20678CD1AC586C2840485104D022E34
:100370000FD1808E28802E880E4D891989B20E48A3
:10038000A9420AD89B1B9BB2AB4206D8816043614D
:1003900070BD002EEFD12E80EDE782604461F7E75B
:1003A00000000240C000002010270000F0580000AC
:1003B000C8110020FE0F00000074004080230A4A8C
:1003C000DB0251690B435361A022084BD204196828
:1003D0000A431A601A6806490A401A608022D968DE
:1003E00052050A43DA6070470010024000040048DA
:1003F000FFFFFFCF8023324A9B00916910B50B436A
:100400000121936153690B435361022350690343F4
:100410005361802350699B0203435361294B9868C1
:1004200008420FD1802198680906014399609968B4
:100430000029FCDB0120996801423DD001211868A8
:100440000842FCD006219020596142319962C005D2
:1004500001681D4C2140016002201C49D9601C49E3
:1004600048601C4888601C48C8601C480860C02060
:100470000C68800120430860802190694902014393
:1004800091612F21164AC22011852639D162783117
:100490001180613991800422996880000A439A6032
:1004A000104B11491A5811408022D2010A431A50A8
:1004B000802292001A6010BD996801439960BAE7E2
:1004C00000100240002401403FCFFFFF0315000051
:1004D0000800024040240140C2000020A3050000A3
:1004E0000040014000E100E0FF00FFFF80230F4AD1
:1004F0009B05D16910B50B43D3610D4B0D4A1968AB
:100500000A431A6000229A605A61FFF773FF902332
:10051000DB051A6808490A401A60802219685202ED
:100520000A431A60802252049A6110BD00100240F2
:100530000074004001000100FFFFFCFFF8B504005B
:10054000C817091841400DB211888D4206DC188881
:1005500060430A2101F0CEF804B20DE011890120B8
:100560008D4201DB1889F3E74600915BC7B28D42EB
:1005700004DD01300528F7D12000F8BD042FFBD0A1
:10058000064F9E5BC0194700DB5B481B9B1B584313
:10059000D35BC91A01F0AEF88019D9E7FFFFFF7FDE
:1005A000F0B544490500CA8E43482C32FF3292B25E
:1005B0008BB0424B824202D81A6852191A60404AE4
:1005C0001868904201DD3F4A1A603F4A186890421D
:1005D00001DA3E4A1A60C8202A23CC5E3C4AE60F64
:1005E0003619761031003B4B8000FFF7A7FF80B231
:1005F0006421684301F07EF83100374A0790374B99
:100600004B20FFF79BFF2D4B64211B685843089339
:1006100001F070F8324A31000990324B3248FFF74E
:100620008DFF324B642100229B5EEB1A584301F090
:1006300061F8079B099A2E499A182E4B121800262A
:100640009B5F0A60D21AD717D6197E40962E03DD1B
:10065000002A2CDD96330B60C426FA21089B0594F2
:10066000B600234C049303962368234F0293099BFF
:10067000224A019000934900079B3800FFF70EFEC5
:100680000100380000F030FE1D4B22689A4200DD68
:1006900026601C4B22689A4201DA1B4B2360134BE5
:1006A0001D800023E05E134B18800BB0F0BD963B1D
:1006B000D1E7C046C000002056020000AC00002078
:1006C0001404000015040000ECFBFFFFEBFBFFFF30
:1006D0003A00002044000020140000201E000020EA
:1006E000000000200A00002028230000A0000020B5
:1006F000A4000020A2000020D40F0020B819000898
:100700000F030000F1FCFFFFF0FCFFFFF7B50388CB
:100710000190002B48D03A22FF32934200D0E8E00B
:10072000764B774C1A8A1800520405D422003832CE
:1007300015780122154258D0022323708023826944
:100740005B0113438361802290235200DB059A6191
:10075000882900D087E074396A4800F01FFA2678AB
:10076000694F012E15D1631CDA7F3B68674D0093FA
:100770009023DB05152A3ED1EB329A61A08C322101
:1007800000F02EFF009B80B25F30FF30334242D03A
:10079000288022003B684C3201333B601388002BD9
:1007A0005BD0013B13801AE0594800F055FE2C2223
:1007B0005849FF320300022000F01EFE00F018FC32
:1007C000554B187000F0B8FAFFF790FEFFF7F6FDF2
:1007D00001224B4B14214B481A7000F0DFF93A22EA
:1007E0000120019BFF321A80FEBD22708022986991
:1007F00052050243ABE7112A0FD1EF329A61A08C68
:10080000322100F0EDFE009A83B24448C01A324211
:10081000BED1C30F18184010BAE72200493212782F
:10082000002A15D0802252009A61A08C322100F05B
:10083000D7FE009B80B2334203D05F30FF30801080
:10084000A6E70322354B1B1AD8171040C018F6E74D
:100850008021490499612A809BE70122383423785A
:1008600093432370BBE72C4B1B788B42B7D1254DAC
:10087000280000F09BF9002803D01421280000F084
:100880008DF92378022B2ED1F333A28CFF339A42B9
:1008900029D9238E608DC01A00B2FFF781FE2A226B
:1008A000A35E0500D90FC91849101D4A1D4B5020E1
:1008B000FFF744FE2622A35E2821625E64219B1A74
:1008C000584300F017FF184B401900B2434334213E
:1008D000625E164850431818C3175B045B0C1B1864
:1008E000DB13A3867BE70023114A1360114A1380B0
:1008F000F7E70023019A0320138075E700040048FE
:10090000C0000020B0000020A8000020C811002076
:10091000EC190008431A0008CA110020A2FEFFFFCC
:1009200028000020320000208816000078690000AE
:10093000AC000020A0000020F8B503880600002BC2
:1009400012D0332B49D19021264BC90547331A7851
:10095000254B002A3AD080229869920502439A6179
:1009600080231B048B6129E000F050FC1F4A2049C2
:10097000204800F071FD80251F4F204C03002522E8
:1009800039000A2000F038FD6369AD022B43636132
:100990001B4800F061FD292203003900022000F00D
:1009A0002BFD636980221D4390236561DB05196877
:1009B000D2010A431A60802212049A61114864210C
:1009C00000F0ECF8332301203380F8BD80228A61E7
:1009D0008022996992010A43EFE7002303800320F4
:1009E000F3E7C046C000002000040048681A000871
:1009F000711A00087D1A0008E51A0008001002406C
:100A0000EC1A0008100100200C488546002103E084
:100A10000B4B5B58435004310A480B4B42189A4227
:100A2000F6D30A4A02E0002313600432084B9A42CC
:100A3000F9D300F02BFAFFF73DFCFEE70080002021
:100A4000681B0008000000209C0000209C00002083
:100A5000CC110020FEE7000010B50E4C2368002BDF
:100A600002D10D4A136010BD00F0B4FD21680B687F
:100A70004A689B181B1A8968002903D1C018064BC5
:100A80001860F0E70A684C681219121A9342F2D9FA
:100A90001300F0E7240100202001002010B50248D7
:100AA00000F05AFB10BDC04670000020F8B5038866
:100AB0000500002B0DD0592B4AD1872924D10020C5
:100AC000012625490B68002B0CD1002803D00B60B0
:100AD00001E0214A1360592301202B80F8BD30002A
:100AE0002300F0E7DF689C689742F8D0002800D028
:100AF0000B6099680029EED0C868904202D18968DD
:100B00009960F6E70B00F4E78229E4D10026124F42
:100B10003C68002CDFD02000FFF7DBFA002814D05F
:100B200022008821E06800F0D7FA00280BD1E060AD
:100B3000A368002E05D0B3600023A360FFF78CFFED
:100B4000E4E73B60F8E7FFF7A9FF2600A468E0E7C9
:100B5000002303800320C1E72401002010B5040016
:100B6000FFF79CFFE3680B4A002B02D01368002BB1
:100B700006D1094B1B68E36013681460A36004E0AE
:100B8000A34205D1044A1268DA60FFF765FF10BD81
:100B90009B68ECE724010020FC01002010B5040054
:100BA000FFF790FA2000FFF7D9FF10BDC06843425D
:100BB00058417047024B1868431E98417047C04621
:100BC00024010020034B1B68181E01D0024B18683B
:100BD0007047C04624010020200100203FB5D821E5
:100BE0004A4C490062584A48520DFFB093B28242C3
:100BF0001AD17E3821582358464D1B0A0902464A0D
:100C00004919DBB25B185385235844481B0C5B1908
:100C10009385434B0022197800F05EFA2023E268A6
:100C20001343E3607FB03FBDEE208000824208D1D5
:100C3000DC235B00E358384ADBB27F3B4A32138047
:100C4000ECE7384A934206D1DE235B00E258324B90
:100C50000133DA77E2E7E4229200934207D1DE2300
:100C60005B00E2582C4B120A47331A70D6E72E4A23
:100C700093420CD1DC235B00E158274B1A00483229
:100C80001170DE225200A2584933120EEDE7852280
:100C90009200934210D1DC235B00E058E358000639
:100CA0001B0ADBB2000CC0180A230C21584300F0C9
:100CB00097FC194B9884B1E71C4A9342AED1164871
:100CC000142203004C331A80DE235B00E258030039
:100CD000DC2538331A706D006259154B5201520DE4
:100CE000D2186358615912B20286029101923421DE
:100CF000425EFA2100925B0D0E4A490005A8FFF7FB
:100D0000CDFA010005A800F0EFFA87E70064004083
:100D10003602000000F0FFFFC0000020500000205D
:100D2000CA110020220200000E030000B6030000DA
:100D300000FCFFFF181B00088023304A9B04D16988
:100D400030B50B43D3612E4B2E491A680A401A6006
:100D5000A022196812030A431A604422596A0A43FE
:100D60005A620122284B19681143196059681142CF
:100D7000FCD002200124196881431960D8692349F5
:100D80000143D9611968914319605A682242FCD124
:100D9000802080001A58872122431A507F22890020
:100DA0005D582A435A509022194992009950194986
:100DB0000832995018490832995018490832995008
:100DC0001749083299501749083299501649083284
:100DD00099501A58A2431A50122259691D300A43D9
:100DE0005A61124BFF301A581149114080221204E7
:100DF0000A431A508022D2051A6030BD001002400A
:100E000000040048FFFFF0FF006400400B002300D7
:100E10000072C0FFC046E0FF4044E0FFC076E0FF44
:100E2000C061E0FF8042E0FF0077E0FF00E100E00A
:100E3000FFFF00FF1122124B12491A60124B5A6831
:100E40000A405A60A022596892030A435A608022DD
:100E5000196852040A431A608022920419681142E8
:100E6000FCD003215A688A435A60022259680A4317
:100E70000C215A605A680A40082AFBD17047C046C4
:100E800000200240FFFFC0FF001002400121124B72
:100E900010B51A6811480A431A605A6802405A602D
:100EA0001A680F4802401A601A680E4802401A6019
:100EB0005A680D4802400F205A60DA6A8243DA62AB
:100EC0001A6B0A4802401A635A6B8A435A6300221B
:100ED0009A60FFF7AFFF10BD001002400CB8FF088A
:100EE000FFFFF6FEFFFFFBFFFFFFC0FFACFEFFFFB3
:100EF000836870B504000D00002B0FD0094908600D
:100F000002210C308170290098470238012801D94C
:100F1000832D04D12100200000F00EF870BD0123C4
:100F2000A373FBE7FC010020837B10B5DB0701D531
:100F3000FFF7DEFF10BD0000F7B51E4F01913D68C1
:100F40002C00844204D0002C00D1F7BD2468F8E7BF
:100F5000002CFAD0184E33680093A37B002B0FD0DF
:100F60000023A373002D13D1A368002B08D0019A8E
:100F7000944205D0200034602A0083210C30984729
:100F80003B68A3420ED123683B60009B3360DCE7E3
:100F9000AC4204D0220087212800FFF7C5FF2D684E
:100FA000E0E71300002BF0D01A68A242F9D12268C2
:100FB0001A60EAE700020020FC010020002270B560
:100FC0000125094B1A70094B1C68002C00D170BD1B
:100FD000E37B002B05D0E581002282212000FFF772
:100FE00087FF2468F1E7C046F801002000020020D6
:100FF000024B1878421C1A707047C046F10100205D
:101000008A22064B1A700023054A1370054A137092
:10101000054A1360054A13607047C046F10100207D
:10102000F0010020F201002000020020FC0100205D
:10103000F8B5214D2B78002B01D0FFF7BFFF1F4BD8
:101040001C789C46002C1CD00C201D4F1D4A3B7860
:101050001D4E5843815C1018317042681B4E01339D
:1010600032600F2633403B7063468068013C1C7041
:10107000002819D1164C174B1B6823602368002BDE
:1010800004D10E4A2B781078C018F8BD2B78002BAD
:1010900001D0FFF793FF0C4B206819780B4B1A68AF
:1010A000FFF742FF2368E7E7812901D1012383731A
:1010B000FFF73AFFE5E7C046F8010020F201002003
:1010C000F0010020300100202C0100202801002028
:1010D000F401002000020020F0B50B4E012433780B
:1010E000102B0ED0094C0C2725780F245D192540B4
:1010F0007D43074C0133295564196260A0600024C8
:1011000033702000F0BDC046F2010020F001002045
:101110003001002070B5034C2568FFF705FF2560FE
:1011200070BDC046FC01002070B50A4C0A0025685D
:101130002B0083420BD0002B0AD1002807D00121BD
:1011400005608173838180312060FFF7E3FF70BD0C
:101150001B68EEE700020020002807D0837B013BDC
:10116000012B03D80123024AC37313707047C04692
:10117000F80100200023036070470068704703688F
:1011800010B50024002B06D110BD226009E01C0020
:10119000002AF9D013001A689942F8D1002CF4D132
:1011A000026000230B60EFE71149124A08681368D8
:1011B00030B5984215D092200F4B104C1860104853
:1011C00098601068D8601568086885420AD2086877
:1011D0001268821A5A600A682260012219680A435A
:1011E0001A6030BD1168074A521A5A60064AF3E77E
:1011F00084000020800000204400024004020020FF
:1012000028480040C10E00200903002080221F4B07
:10121000D202D969C2200A43DA6159691C4A8000A6
:101220000A435A61A0231B4A1B0211680B43136037
:101230003422194B9A811968333A0A431A60802282
:101240009A601968783A0A431A60144B14491A686C
:101250000A401A608022196892030A431A60C02269
:10126000996892030A439A608022596AD2000A431D
:101270005A628023C0210B4A1B01136013580906D0
:101280001B021B0A0B4313507047C046001002405C
:1012900001000400A800024000480040000400488B
:1012A000FFFFCFFF00E100E080220A4B520110B5A2
:1012B0005A60094B1A68094B1A60094A12681B6880
:1012C0009A4203D10022074B1A7010BDFFF76CFF42
:1012D000FBE7C0460000024004020020800000201E
:1012E0008400002008020020214BF7B51C68214B28
:1012F00007001D68AC422FD81F4B641B5E1B1F4BA1
:10130000E4188C4200D90C00A6421AD232003900EF
:10131000280000F0DBFA1A4DA31B1A002800B919A7
:10132000019300F0D3FA019B5D19124B1D60154B20
:101330001A78002A03D101321A70FFF735FF200016
:10134000FEBD28002200390000F0C0FA0A4B2D191A
:101350009D42EAD10A4DE8E7641B013C8C4200D96A
:101360000C0028002200390000F0B0FA2D19DCE74B
:101370008000002084000020C10E0020B70B000078
:10138000090300200802002010B5054B054A064954
:1013900014680868844202D0013B002BF8D110BDCC
:1013A00061EA000084000020800000200FB437B5FF
:1013B0008021104C06AB04CB490020000193FEF7BE
:1013C000FFFE200000F0C6FA0D230A222354231842
:1013D0005A700022050020009A7000F0BBFA01004C
:1013E0002000FFF781FFFFF7CFFF28003EBC08BCBD
:1013F00004B0184709020020F0B5C5B015001F0061
:101400000C0000F0E7F8060000F0E4F8FA2189008B
:10141000039700F06BF908000A2100F0E1F8FA21C7
:1014200002908900300000F0DBF823000190009565
:10143000074AFF2104A8FEF731FF10230022FF33E3
:101440006B4404A903481A70FFF7B0FF45B0F0BD24
:10145000421B0008531B00080FB413B5084C04AB23
:1014600004CBFF2120000193FEF7AAFE23000022F7
:10147000FF3320001A7016BC08BC04B01847C046E1
:10148000C10E0020F8B5038805001600002B1DD002
:101490004B2B30D10120882924D1194F3800FFF778
:1014A0006CFE0400002C1AD0231D9E4221D138006E
:1014B0002100FFF764FE134E636937683360A36948
:1014C000002B01D0E0699847376008E00C48FFF72F
:1014D00054FE0400002C06D101220B4B1A704B2342
:1014E00001202B80F8BD201DA168FFF757FB246861
:1014F000F0E72468D6E7002303800320F2E7C04624
:10150000C40F0020FC010020C80F002010B50024EB
:10151000044B05481C70FFF72DFE21000348FFF720
:1015200003FE10BDC80F0020C40F0020880000205B
:1015300010B504000434231F1868002800D110BD22
:101540000021FFF7F1FDF5E78022114B10B51B6874
:10155000104B114C92045A60236801332360FFF74B
:1015600029FB002806D0FFF72DFB2368984201D8FD
:10157000FFF794FA094A1368013B1360002B06D168
:1015800007490B6801330B60FA239B00136010BD01
:1015900010E000E000ED00E0CC0F002098000020FB
:1015A000D00F0020C022084912060B6A1B021B0A3A
:1015B000134300220B62054B9A60054A5A600322CE
:1015C0001A6062B67047C04600ED00E010E000E02F
:1015D00070170000014B18687047C046CC0F002000
:1015E000002243088B4274D303098B425FD3030A62
:1015F0008B4244D3030B8B4228D3030C8B420DD375
:10160000FF22090212BA030C8B4202D31212090202
:1016100065D0030B8B4219D300E0090AC30B8B4240
:1016200001D3CB03C01A5241830B8B4201D38B03EE
:10163000C01A5241430B8B4201D34B03C01A524193
:10164000030B8B4201D30B03C01A5241C30A8B42D6
:1016500001D3CB02C01A5241830A8B4201D38B02C1
:10166000C01A5241430A8B4201D34B02C01A524165
:10167000030A8B4201D30B02C01A5241CDD2C309D7
:101680008B4201D3CB01C01A524183098B4201D353
:101690008B01C01A524143098B4201D34B01C01A3E
:1016A000524103098B4201D30B01C01A5241C308B6
:1016B0008B4201D3CB00C01A524183088B4201D325
:1016C0008B00C01A524143088B4201D34B00C01A11
:1016D0005241411A00D20146524110467047FFE77D
:1016E00001B5002000F0F0F802BDC0460029F7D097
:1016F00076E7704703460B437FD4002243088B42B2
:1017000074D303098B425FD3030A8B4244D3030B88
:101710008B4228D3030C8B420DD3FF22090212BA4D
:10172000030C8B4202D31212090265D0030B8B42C9
:1017300019D300E0090AC30B8B4201D3CB03C01AB3
:101740005241830B8B4201D38B03C01A5241430B8E
:101750008B4201D34B03C01A5241030B8B4201D37E
:101760000B03C01A5241C30A8B4201D3CB02C01AE9
:101770005241830A8B4201D38B02C01A5241430A61
:101780008B4201D34B02C01A5241030A8B4201D350
:101790000B02C01A5241CDD2C3098B4201D3CB01F7
:1017A000C01A524183098B4201D38B01C01A5241A6
:1017B00043098B4201D34B01C01A524103098B42AA
:1017C00001D30B01C01A5241C3088B4201D3CB0095
:1017D000C01A524183088B4201D38B00C01A524178
:1017E00043088B4201D34B00C01A5241411A00D228
:1017F00001465241104670475DE0CA0F00D0494291
:10180000031000D34042534000229C4603098B4200
:101810002DD3030A8B4212D3FC22890112BA030A88
:101820008B420CD3890192118B4208D3890192110A
:101830008B4204D389013AD0921100E08909C3098F
:101840008B4201D3CB01C01A524183098B4201D391
:101850008B01C01A524143098B4201D34B01C01A7C
:10186000524103098B4201D30B01C01A5241C308F4
:101870008B4201D3CB00C01A524183088B4201D363
:101880008B00C01A5241D9D243088B4201D34B007E
:10189000C01A5241411A00D20146634652415B10C0
:1018A000104601D34042002B00D5494270476346A1
:1018B0005B1000D3404201B5002000F005F802BDE6
:1018C0000029F8D016E770477047C046F0B50F2AD8
:1018D00037D90D0005430C000300AD0735D11500C5
:1018E000103D2D092E013618103627681F606768D5
:1018F0005F60A7689F60E7681034DF601033B34211
:10190000F3D10F2401352D01491914404519032C39
:101910001DD90023CE58EE500433E61A032EF9D811
:101920000323043CA4080134A4001A402D1909190A
:10193000002A05D00023CC5CEC5401339342FAD149
:10194000F0BD0500002AF5D1FAE70500F2E7220014
:10195000F8E7C04610B5040083070AD00378002BCF
:1019600023D0032202E00378002B1CD00130104268
:10197000F9D102680E4B0F49D31893430B420FD194
:10198000043002680A4BD31893430B4208D1043049
:101990000268074BD31893430B42F1D000E00130AB
:1019A0000378002BFBD1001B10BD0020FCE7C046D4
:1019B000FFFEFEFE8080808050203D20256420496F
:1019C000203D2025642044203D202564207265733D
:1019D0003D2564203C2025642073756D203D202525
:1019E00064207265616C3D25640D0A005374617258
:1019F000742073746565722070726F636573730011
:101A0000433A5C55736572735C737461726F73747F
:101A1000615C446F63756D656E74735C776F726B38
:101A20005C736F66745C62616C656E6F5C63616E43
:101A30005C41582062617365645C7372635C6261CF
:101A400073655C73746565722E63005374656572AB
:101A50002070726F636573730000000060000020E7
:101A6000500000200000000031393A30383A30365A
:101A7000004A756C2020322032303232001B5B333A
:101A8000323B316D5374617274206669726D776197
:101A900072652066726F6D2025732025731B5B3085
:101AA0006D00433A5C55736572735C737461726F59
:101AB0007374615C446F63756D656E74735C776F8E
:101AC000726B5C736F66745C62616C656E6F5C6395
:101AD000616E5C41582062617365645C7372635C23
:101AE000626173655C6D61696E2E6300537461722F
:101AF00074206D656E752070726F63657373004D31
:101B0000656E752070726F63657373004576656EE0
:101B1000742074696D65720069643D3078257820A1
:101B20006D6F6D656E743D25642C20616E676C650C
:101B30003D25642C2066726F6D2030782578200D4D
:101B40000A0025732825303464292025642C256457
:101B5000733A202573004374696D65722070726F4B
:051B60006365737300D2
:101B6800000007000F001E0046000F0008000700D5
:101B780006000600000007000F001E0046000A00CD
:101B88000A0007000500030000000A0014002D00E9
:101B98005A000F000C0004000100000007000F00AD
:101BA8001E0046003C0023001E001900190000001A
:101BB800000000004B1A00080D0700080000000094
:101BC80000000000FF1A00083909000800000000A2
:101BD800000000000C1B0008AD0A0008000000000F
:101BE800090300200903002000000000561B00081C
:0C1BF8008514000800000000E803000055
:0400000508000000EF
:00000001FF
