:020000040800F2
:1000000000800020490B0008950B0008950B0008A4
:1000100000000000000000000000000000000000E0
:10002000000000000000000000000000950B000828
:100030000000000000000000950B00085D1600089D
:10004000950B0008950B0008950B0008950B000810
:10005000950B0008950B0008950B0008950B000800
:10006000950B00081D030008950B0008BD13000840
:10007000950B0008950B0008950B0008950B0008E0
:10008000950B0008950B0008950B0008950B0008D0
:10009000950B0008950B0008950B0008950B0008C0
:1000A000950B0008950B0008950B0008950B0008B0
:1000B000950B0008000000001D0D00080000000066
:1000C0005FF808F110B54160040001F00DFB2060FD
:1000D00010BD10B5040001F007FB2368C31A606867
:1000E000013398428041404210BD634630B55A68A2
:1000F0009C681D68A21A01320021AA4205D2621C26
:100100009A6020709B6819700131080030BD30B5CD
:100110006446236865685A1EA3685B1BD31A8B422A
:1001200000D90B00C118A268884203D10021180031
:10013000117030BD551CA560057801301570F2E7CF
:10014000F7B500260F001C00B04201DA404201362C
:100150006123002A00D041232500DBB20A3B019332
:10016000390001F04DFB019BCAB2D318DBB209295B
:1001700002D813003033DBB26A1C2B70002814D174
:1001800030256042089F811813008F420FD8002E3F
:1001900002D02D221A7001330022181B1A70420857
:1001A000A218013BA24205D1FEBD1500D8E715708B
:1001B0000132E7E721781D78257019700134F0E7E6
:1001C00070B515008EB01C0012AB0793059004911A
:1001D0000690069B28780293059B0393039A029B43
:1001E000991A00281AD0049A4B1C0292934215D2F5
:1001F000252805D0013504AB9C46FFF776FFE8E7DC
:10020000687830280DD000230235642826D013D812
:10021000582832D0632838D00028ECD108000EB01E
:1002200070BDAB78002BF9D0303BDBB2092B00D985
:100230000023E8780435E8E775280FD078281CD02B
:100240007328D8D12068261D0300191A01335A1EBD
:100250001278002AF9D104AB9C460BE000220A2157
:100260000093261D08AB2068FFF76AFF04AB9C468D
:10027000010008A8FFF74BFF0EE058380093261D39
:100280004242424108AB1021EDE7206804ABC0B206
:100290009C46261DFFF729FF34009AE70CB407B5EA
:1002A00004AB04CB0193FFF78BFF03B008BC02B093
:1002B0001847000070B5114B114C124D256023609A
:1002C000114BA36007236360104B236001F0F4F926
:1002D00000F020FF01F0A4F90D48002100F0AEFF6E
:1002E0000C4801F0AFF900F02DFF0028FBDC0A4AB2
:1002F0001368013313602560F5E7C04655550000CB
:1003000000300040AAAA0000FF0F0000CCCC000083
:10031000600000207C1B00088C0000200123204A84
:1003200070B551681F480B4353602826845F26230D
:10033000C15E1D4D1D4B69434288654384885A4305
:1003400063438A18ED18D117EB1749045B04490C75
:100350005B0C89185B19C913DB130AB21CB289B292
:100360009BB20678CD1AC586C2840485104D022E34
:100370000FD1808E28802E880E4D891989B20E48A3
:10038000A9420AD89B1B9BB2AB4206D8816043614D
:1003900070BD002EEFD12E80EDE782604461F7E75B
:1003A00000000240DC00002010270000F058000090
:1003B000E4110020FE0F00000074004080230A4A70
:1003C000DB0251690B435361A022084BD204196828
:1003D0000A431A601A6806490A401A608022D968DE
:1003E00052050A43DA6070470010024000040048DA
:1003F000FFFFFFCF8023324A9B00916910B50B436A
:100400000121936153690B435361022350690343F4
:100410005361802350699B0203435361294B9868C1
:1004200008420FD1802198680906014399609968B4
:100430000029FCDB0120996801423DD001211868A8
:100440000842FCD006219020596142319962C005D2
:1004500001681D4C2140016002201C49D9601C49E3
:1004600048601C4888601C48C8601C480860C02060
:100470000C68800120430860802190694902014393
:1004800091612F21164AC22011852639D162783117
:100490001180613991800422996880000A439A6032
:1004A000104B11491A5811408022D2010A431A50A8
:1004B000802292001A6010BD996801439960BAE7E2
:1004C00000100240002401403FCFFFFF0315000051
:1004D0000800024040240140DE000020A305000087
:1004E0000040014000E100E0FF00FFFF80230F4AD1
:1004F0009B05D16910B50B43D3610D4B0D4A1968AB
:100500000A431A6000229A605A61FFF773FF902332
:10051000DB051A6808490A401A60802219685202ED
:100520000A431A60802252049A6110BD00100240F2
:100530000074004001000100FFFFFCFFF8B504005B
:10054000C817091841400DB211888D4206DC188881
:1005500060430A2101F058F904B20DE0118901202D
:100560008D4201DB1889F3E74600915BC7B28D42EB
:1005700004DD01300528F7D12000F8BD042FFBD0A1
:10058000064F9E5BC0194700DB5B481B9B1B584313
:10059000D35BC91A01F038F98019D9E7FFFFFF7F53
:1005A000F8B54C4B050018780321421C1A7001F075
:1005B00027F9494CC9B249000D53638820880321AB
:1005C000C018A388C01800B201F01EF9434A44497C
:1005D000D38E05B29033FF339BB2424F8B4202D889
:1005E0003B685B193B60404B3968994201DD3F4BEA
:1005F0003B603F4B3968994201DA3E4B3B60C82073
:100600002A23D35E8000DE0FF61876103A4A3B4B61
:100610003100FFF793FF80B26421684301F0F4F8E2
:10062000374B04001860232338686421584301F0D5
:10063000EBF8344B344A18603100344B070034482F
:10064000FFF77CFF334B642100229B5EEB1A58437B
:1006500001F0DAF8304A1378591C117007222F493B
:1006600013405B00585200231A005800085E013303
:100670001218082BF9D10721294BE4191A60D31756
:100680000B409B18274FDB10E41800217A5E264BA5
:1006900026491C60A41AE6170988A01970408842F0
:1006A00003DD002C13DD52181A60214A19689142AB
:1006B00001DD204A1A60204A1968914201DA1F4A76
:1006C0001A600020185E134A38801580F8BD521A4F
:1006D000EAE7C046B4000020AE000020DC000020A5
:1006E0001E030000C8000020D7090000D809000040
:1006F00029F6FFFF28F6FFFF2A0000203400002023
:100700009800002094000020020000200C0000202F
:1007100028230000B8000020AC0000209C0000202E
:1007200090000020BA000020C0000020000000203F
:1007300071030000720300008FFCFFFF8EFCFFFFBF
:10074000F0B503888DB00B90002B47D0AD2252003E
:10075000934200D053E1AC4DAC4C2B8A5B0405D4E2
:10076000230038331A7801231A4259D00223237008
:100770008023AA695B011343AB618022902352005E
:10078000DB059A61882900D089E07439A04800F01F
:10079000A5FA26789F4F012E15D1631CDA7F3B689E
:1007A0009D4D0A939023DB05152A40D1EB329A61C7
:1007B000A08C322100F09EFF0A9B80B25F30FF3098
:1007C000334244D0288022003B684C3201333B60E6
:1007D0001388002B5DD0013B13801AE08F4800F096
:1007E000C5FEA6228E4952000300022000F08EFEB4
:1007F00000F088FC8B4B187000F028FBFFF776FEAA
:10080000FFF7DCFD0122814B142181481A7000F0B2
:1008100065FAAD2301200B9A5B0013800DB0F0BD8B
:1008200023708023AA695B051343AB61AAE7112AF1
:100830000FD1EF329A61A08C322100F05BFF0A9A4F
:1008400083B27948C01A3242BCD1C30F1818401085
:10085000B8E7220049321278002A15D080225200CF
:100860009A61A08C322100F045FF0A9B80B233428E
:1008700003D05F30FF308010A4E703226A4B1B1ABD
:10088000D8171040C018F6E78021490499612A80E2
:1008900099E701223834237893432370B9E7614BF9
:1008A0001B788B42B5D15A4E300000F01FFA002859
:1008B00003D01421300000F011FA2A22A35E302266
:1008C000A05E181AC21783185340584A322B00DC16
:1008D00088E0642313802378022B00D088E0AF23C4
:1008E000A28C9B009A4203D82B8A5B0400D47FE041
:1008F0004F4AE38E9B184F4A9BB2934278D800B27E
:10090000FFF74EFE2A23E65E4B4AF10F89194B4B47
:10091000491005000120FFF711FE2623E25E28237F
:10092000E75E6421D71B784300F06EFF031C00B222
:10093000C82800DDC823EB18414D1BB25D433423AA
:10094000E25E404B5343EB18DD176D046D0CED1860
:10095000EB131AB29C463C4BA2861B88632B08D82B
:100960003A4D2878411C2970C10702D53649013318
:100970000B80374B012100201B5E934200DB0021DE
:10098000344A354D137828005B000B43DBB21370FB
:1009900008933022A35EFA210793634604932F4BFA
:1009A000069605971B682E4A03932E4B49001B6839
:1009B00002932D4B1B6801932C4B1B6800932C4B0F
:1009C0001B68FFF76BFC0100280000F017FD1E4BB1
:1009D0001A88642A01D964221A800C4B9A8E1C4B07
:1009E0001A8016E71388002B00D174E7013B71E7EA
:1009F00000231C4AA38613601E4A138009E70023C4
:100A00000B9A0320138009E700040048DC00002053
:100A1000CC000020C4000020E4110020CC1A000803
:100A2000231B0008E6110020A2FEFFFFB6000020F5
:100A3000CF0700009E0F00001600002020000020BD
:100A4000881600007869000000000020AD0000203A
:100A5000BC000020B5000020F00F0020C0000020E6
:100A60002B1B0008C80000209000002094000020EC
:100A700098000020B8000020F8B503880600002B7D
:100A800012D0332B49D19021264BC90547331A7810
:100A9000254B002A3AD080229869920502439A6138
:100AA00080231B048B6129E000F03AFC1F4A204997
:100AB000204800F05BFD80251F4F204C03002522BD
:100AC00039000A2000F022FD6369AD022B43636107
:100AD0001B4800F04BFD292203003900022000F0E2
:100AE00015FD636980221D4390236561DB0519684C
:100AF000D2010A431A60802212049A6111486421CB
:100B000000F0ECF8332301203380F8BD80228A61A5
:100B10008022996992010A43EFE7002303800320B2
:100B2000F3E7C046DC00002000040048881B0008F2
:100B3000911B00089D1B0008051C000800100240C6
:100B40000C1C00082C0100200C488546002103E005
:100B50000B4B5B58435004310A480B4B42189A42E6
:100B6000F6D30A4A02E0002313600432084B9A428B
:100B7000F9D300F015FAFFF79DFBFEE70080002097
:100B80005C1C0008000000208C0000208C0000206D
:100B9000E8110020FEE7000010B50E4C2368002B82
:100BA00002D10D4A136010BD00F09EFD21680B6854
:100BB0004A689B181B1A8968002903D1C018064B84
:100BC0001860F0E70A684C681219121A9342F2D9B9
:100BD0001300F0E7400100203C01002010B502485E
:100BE00000F044FB10BDC04660000020F8B503884B
:100BF0000500002B0DD0592B4AD1872924D1002084
:100C0000012625490B68002B0CD1002803D00B606E
:100C100001E0214A1360592301202B80F8BD3000E8
:100C20002300F0E7DF689C689742F8D0002800D0E6
:100C30000B6099680029EED0C868904202D189689B
:100C40009960F6E70B00F4E78229E4D10026124F01
:100C50003C68002CDFD02000FFF73BFA002814D0BE
:100C600022008821E06800F0C1FA00280BD1E06082
:100C7000A368002E05D0B3600023A360FFF78CFFAC
:100C8000E4E73B60F8E7FFF7A9FF2600A468E0E788
:100C9000002303800320C1E74001002010B50400B9
:100CA000FFF79CFFE3680B4A002B02D01368002B70
:100CB00006D1094B1B68E36013681460A36004E06D
:100CC000A34205D1044A1268DA60FFF765FF10BD40
:100CD0009B68ECE7400100201802002010B50400DA
:100CE000FFF7F0F92000FFF7D9FF10BDC0684342BD
:100CF00058417047024B1868431E98417047C046E0
:100D000040010020034B1B68181E01D0024B1868DD
:100D10007047C046400100203C010020D82370B538
:100D2000404C5B00E2584049520D93B28A421AD1BE
:100D3000DC204000215823583C4D1B0A09023C4A44
:100D40004919DBB25B18538523583A481B0C5B19D1
:100D50009385394B0022197800F048FA2023E26885
:100D60001343E36070BDEE2189008A4208D1DC2381
:100D70005B00E3582E4ADBB27F3B4A321380EDE73B
:100D80002E4A934206D1DE235B00E258284B013302
:100D9000DA77E3E7E4229200934207D1DE235B0097
:100DA000E258234B120A47331A70D7E7244A93427A
:100DB0000CD1DC235B00E1581D4B1A004832117046
:100DC000DE225200A2584933120EEDE7852292002E
:100DD000934210D1DC235B00E058E35800061B0A65
:100DE000DBB2000CC0180A230C21584300F082FC2F
:100DF0000F4B9884B2E7134A9342AFD10C4A1421A7
:100E0000130010004C331980A531FF31635838307E
:100E10001B04DB0E037063580B495B015B0D5B1811
:100E200013869BE7006400403602000000F0FFFFDD
:100E3000DC00002040000020E6110020220200001B
:100E40000E030000B603000000FCFFFF8023304AC1
:100E50009B04D16930B50B43D3612E4B2E491A68E0
:100E60000A401A60A022196812030A431A60442239
:100E7000596A0A435A620122284B196811431960C2
:100E800059681142FCD0022001241968814319607D
:100E9000D86923490143D9611968914319605A6897
:100EA0002242FCD1802080001A58872122431A5008
:100EB0007F2289005D582A435A5090221949920096
:100EC00099501949083299501849083299501849CF
:100ED00008329950174908329950174908329950E9
:100EE0001649083299501A58A2431A5012225969C9
:100EF0001D300A435A61124BFF301A5811491140F4
:100F0000802212040A431A508022D2051A6030BD92
:100F10000010024000040048FFFFF0FF00640040A2
:100F20000B0023000072C0FFC046E0FF4044E0FF1A
:100F3000C076E0FFC061E0FF8042E0FF0077E0FFA5
:100F400000E100E0FFFF00FF1122124B12491A607E
:100F5000124B5A680A405A60A022596892030A4309
:100F60005A608022196852040A431A60802292044F
:100F700019681142FCD003215A688A435A60022240
:100F800059680A430C215A605A680A40082AFBD162
:100F90007047C04600200240FFFFC0FF0010024023
:100FA0000121124B10B51A6811480A431A605A6899
:100FB00002405A601A680F4802401A601A680E48C8
:100FC00002401A605A680D4802400F205A60DA6ADF
:100FD0008243DA621A6B0A4802401A635A6B8A43E8
:100FE0005A6300229A60FFF7AFFF10BD0010024065
:100FF0000CB8FF08FFFFF6FEFFFFFBFFFFFFC0FF7F
:10100000ACFEFFFF836870B504000D00002B0FD00D
:101010000949086002210C30817029009847023884
:10102000012801D9832D04D12100200000F00EF801
:1010300070BD0123A373FBE718020020837B10B56A
:10104000DB0701D5FFF7DEFF10BD0000F7B51E4F2F
:1010500001913D682C00844204D0002C00D1F7BDE2
:101060002468F8E7002CFAD0184E33680093A37B6D
:10107000002B0FD00023A373002D13D1A368002BE6
:1010800008D0019A944205D0200034602A008321C0
:101090000C3098473B68A3420ED123683B60009B0D
:1010A0003360DCE7AC4204D0220087212800FFF740
:1010B000C5FF2D68E0E71300002BF0D01A68A242AC
:1010C000F9D122681A60EAE71C0200201802002009
:1010D000002270B50125094B1A70094B1C68002CC1
:1010E00000D170BDE37B002B05D0E5810022822179
:1010F0002000FFF787FF2468F1E7C04614020020B4
:101100001C020020024B1878421C1A707047C0461F
:101110000D0200208A22064B1A700023054A137024
:10112000054A1370054A1360054A13607047C046AC
:101130000D0200200C0200200E0200201C020020E4
:1011400018020020F8B5214D2B78002B01D0FFF7B5
:10115000BFFF1F4B1C789C46002C1CD00C201D4F41
:101160001D4A3B781D4E5843815C1018317042680F
:101170001B4E013332600F2633403B70634680685C
:10118000013C1C70002819D1164C174B1B682360BA
:101190002368002B04D10E4A2B781078C018F8BDB4
:1011A0002B78002B01D0FFF793FF0C4B20681978A8
:1011B0000B4B1A68FFF742FF2368E7E7812901D14B
:1011C00001238373FFF73AFFE5E7C04614020020CE
:1011D0000E0200200C0200204C01002048010020DB
:1011E00044010020100200201C020020F0B50B4E2C
:1011F00001243378102B0ED0094C0C2725780F24AE
:101200005D1925407D43074C0133295564196260FF
:10121000A060002433702000F0BDC0460E02002004
:101220000C0200204C01002070B5034C2568FFF72C
:1012300005FF256070BDC0461802002070B50A4C3D
:101240000A0025682B0083420BD0002B0AD100280E
:1012500007D0012105608173838180312060FFF711
:10126000E3FF70BD1B68EEE71C020020002807D0DA
:10127000837B013B012B03D80123024AC373137004
:101280007047C046140200200023036070470068C6
:101290007047036810B50024002B06D110BD2260F2
:1012A00009E01C00002AF9D013001A689942F8D10D
:1012B000002CF4D1026000230B60EFE71149124AC1
:1012C0000868136830B5984215D092200F4B104C27
:1012D0001860104898601068D860156808688542E2
:1012E0000AD208681268821A5A600A6822600122CB
:1012F00019680A431A6030BD1168074A521A5A60C9
:10130000064AF3E774000020700000204400024009
:101310002002002028480040DD0E00202503002088
:1013200080221F4BD202D969C2200A43DA6159696F
:101330001C4A80000A435A61A0231B4A1B02116801
:101340000B4313603422194B9A811968333A0A43CC
:101350001A6080229A601968783A0A431A60144B1E
:1013600014491A680A401A608022196892030A43D5
:101370001A60C022996892030A439A608022596ACF
:10138000D2000A435A628023C0210B4A1B0113601A
:10139000135809061B021B0A0B4313507047C04623
:1013A0000010024001000400A80002400048004074
:1013B00000040048FFFFCFFF00E100E080220A4B5D
:1013C000520110B55A60094B1A68094B1A60094A54
:1013D00012681B689A4203D10022074B1A7010BD95
:1013E000FFF76CFFFBE7C046000002402002002030
:1013F000700000207400002024020020214BF7B56B
:101400001C68214B07001D68AC422FD81F4B641B82
:101410005E1B1F4BE4188C4200D90C00A6421AD266
:1014200032003900280000F0DBFA1A4DA31B1A0025
:101430002800B919019300F0D3FA019B5D19124BF2
:101440001D60154B1A78002A03D101321A70FFF77C
:1014500035FF2000FEBD28002200390000F0C0FA50
:101460000A4B2D199D42EAD10A4DE8E7641B013C65
:101470008C4200D90C0028002200390000F0B0FA9C
:101480002D19DCE77000002074000020DD0E002024
:10149000B70B0000250300202402002010B5054BE7
:1014A000054A064914680868844202D0013B002BB3
:1014B000F8D110BD61EA0000740000207000002027
:1014C0000FB437B58021104C06AB04CB4900200087
:1014D0000193FEF775FE200000F0C6FA0D230A22E4
:1014E000235423185A700022050020009A7000F03F
:1014F000BBFA01002000FFF781FFFFF7CFFF2800B4
:101500003EBC08BC04B0184725020020F0B5C5B0A9
:1015100015001F000C0000F0E7F8060000F0E4F8EA
:10152000FA218900039700F06BF908000A2100F006
:10153000E1F8FA2102908900300000F0DBF8230086
:1015400001900095074AFF2104A8FEF7A7FE10238B
:101550000022FF336B4404A903481A70FFF7B0FF61
:1015600045B0F0BD381C0008491C00080FB413B585
:10157000084C04AB04CBFF2120000193FEF720FEB2
:1015800023000022FF3320001A7016BC08BC04B0F0
:101590001847C046DD0E0020F8B503880500160088
:1015A000002B1DD04B2B30D10120882924D1194F7D
:1015B0003800FFF76CFE0400002C1AD0231D9E4259
:1015C00021D138002100FFF764FE134E63693768AC
:1015D0003360A369002B01D0E0699847376008E0C9
:1015E0000C48FFF754FE0400002C06D101220B4BDF
:1015F0001A704B2301202B80F8BD201DA168FFF736
:101600006DFB2468F0E72468D6E7002303800320FD
:10161000F2E7C046E00F002018020020E40F00208F
:1016200010B50024044B05481C70FFF72DFE210067
:101630000348FFF703FE10BDE40F0020E00F002079
:101640007800002010B504000434231F1868002817
:1016500000D110BD0021FFF7F1FDF5E78022114B0D
:1016600010B51B68104B114C92045A60236801336B
:101670002360FFF73FFB002806D0FFF743FB2368FA
:10168000984201D8FFF7AAFA094A1368013B136090
:10169000002B06D107490B6801330B60FA239B002E
:1016A000136010BD10E000E000ED00E0E80F002046
:1016B00088000020EC0F0020C022084912060B6AA7
:1016C0001B021B0A134300220B62054B9A60054A5A
:1016D0005A6003221A6062B67047C04600ED00E00F
:1016E00010E000E070170000014B18687047C0461A
:1016F000E80F0020002243088B4274D303098B4279
:101700005FD3030A8B4244D3030B8B4228D3030CD1
:101710008B420DD3FF22090212BA030C8B4202D373
:101720001212090265D0030B8B4219D300E0090A9B
:10173000C30B8B4201D3CB03C01A5241830B8B42A4
:1017400001D38B03C01A5241430B8B4201D34B038D
:10175000C01A5241030B8B4201D30B03C01A5241F2
:10176000C30A8B4201D3CB02C01A5241830A8B4277
:1017700001D38B02C01A5241430A8B4201D34B0260
:10178000C01A5241030A8B4201D30B02C01A5241C4
:10179000CDD2C3098B4201D3CB01C01A5241830978
:1017A0008B4201D38B01C01A524143098B4201D3B2
:1017B0004B01C01A524103098B4201D30B01C01ADD
:1017C0005241C3088B4201D3CB00C01A5241830857
:1017D0008B4201D38B00C01A524143088B4201D384
:1017E0004B00C01A5241411A00D2014652411046E4
:1017F0007047FFE701B5002000F0F0F802BDC046D9
:101800000029F7D076E7704703460B437FD40022C8
:1018100043088B4274D303098B425FD3030A8B4284
:1018200044D3030B8B4228D3030C8B420DD3FF22EE
:10183000090212BA030C8B4202D31212090265D0BC
:10184000030B8B4219D300E0090AC30B8B4201D36F
:10185000CB03C01A5241830B8B4201D38B03C01AB6
:101860005241430B8B4201D34B03C01A5241030B2D
:101870008B4201D30B03C01A5241C30A8B4201D3DE
:10188000CB02C01A5241830A8B4201D38B02C01A89
:101890005241430A8B4201D34B02C01A5241030A00
:1018A0008B4201D30B02C01A5241CDD2C3098B42E5
:1018B00001D3CB01C01A524183098B4201D38B0162
:1018C000C01A524143098B4201D34B01C01A524105
:1018D00003098B4201D30B01C01A5241C3088B424A
:1018E00001D3CB00C01A524183088B4201D38B0035
:1018F000C01A524143088B4201D34B00C01A5241D7
:10190000411A00D201465241104670475DE0CA0FAD
:1019100000D04942031000D34042534000229C466D
:1019200003098B422DD3030A8B4212D3FC22890177
:1019300012BA030A8B420CD3890192118B4208D34D
:10194000890192118B4204D389013AD0921100E0AF
:101950008909C3098B4201D3CB01C01A52418309C3
:101960008B4201D38B01C01A524143098B4201D3F0
:101970004B01C01A524103098B4201D30B01C01A1B
:101980005241C3088B4201D3CB00C01A5241830895
:101990008B4201D38B00C01A5241D9D243088B42EB
:1019A00001D34B00C01A5241411A00D2014663468E
:1019B00052415B10104601D34042002B00D54942F2
:1019C000704763465B1000D3404201B5002000F031
:1019D00005F802BD0029F8D016E770477047C046E9
:1019E000F0B50F2A37D90D0005430C000300AD07F1
:1019F00035D11500103D2D092E01361810362768F7
:101A00001F6067685F60A7689F60E7681034DF60E9
:101A10001033B342F3D10F2401352D01491914407D
:101A20004519032C1DD90023CE58EE500433E61A75
:101A3000032EF9D80323043CA4080134A4001A405F
:101A40002D190919002A05D00023CC5CEC54013370
:101A50009342FAD1F0BD0500002AF5D1FAE705005E
:101A6000F2E72200F8E7C04610B5040083070AD069
:101A70000378002B23D0032202E00378002B1CD034
:101A800001301042F9D102680E4B0F49D31893432D
:101A90000B420FD1043002680A4BD31893430B4218
:101AA00008D104300268074BD31893430B42F1D09E
:101AB00000E001300378002BFBD1001B10BD00209B
:101AC000FCE7C046FFFEFEFE80808080537461729A
:101AD000742073746565722070726F636573730030
:101AE000433A5C55736572735C737461726F73749F
:101AF000615C446F63756D656E74735C776F726B58
:101B00005C736F66745C62616C656E6F5C63616E62
:101B10005C41582062617365645C7372635C6261EE
:101B200073655C73746565722E63005020256420B4
:101B30004920256420442025642073756D20256488
:101B40002072657320256420666C742025642073E0
:101B5000747220256420616E676C652025642025E1
:101B60006420646972202564200D0A005374656541
:101B7000722070726F636573730000005000002064
:101B8000400000200000000032323A32353A32364E
:101B9000004465632020372032303232001B5B3333
:101BA000323B316D5374617274206669726D776176
:101BB00072652066726F6D2025732025731B5B3064
:101BC0006D00433A5C55736572735C737461726F38
:101BD0007374615C446F63756D656E74735C776F6D
:101BE000726B5C736F66745C62616C656E6F5C6374
:101BF000616E5C41582062617365645C7372635C02
:101C0000626173655C6D61696E2E6300537461720D
:101C100074206D656E752070726F63657373004D0F
:101C2000656E752070726F63657373004576656EBF
:101C3000742074696D657200257328253034642919
:101C40002025642C2564733A202573004374696D44
:0B1C500065722070726F636573730093
:101C5C006400000007000F001E0046000F000F007C
:101C6C000D000C000A00000005000A0014005A00C8
:101C7C003200C800A0000A000A00000007000F0094
:101C8C001E004600460028001E001900140000002B
:101C9C00000000006C1B0008410700080000000059
:101CAC00000000001F1C0008790A0008000000005A
:101CBC00000000002C1C0008ED0B000800000000C8
:101CCC002503002025030020000000004C1C000808
:0C1CDC009915000800000000E80300005B
:0400000508000000EF
:00000001FF
