:020000040800F2
:1000000000800020011000084D1000084D1000086D
:1000100000000000000000000000000000000000E0
:100020000000000000000000000000004D1000086B
:1000300000000000000000004D10000881200008B2
:100040004D1000084D1000084D1000084D1000081C
:100050004D1000084D1000084D1000084D1000080C
:100060004D100008310600083D200008BD1B0008A7
:100070004D1000084D1000084D1000084D100008EC
:100080004D1000084D1000084D1000084D100008DC
:100090004D1000084D1000084D1000084D100008CC
:1000A0004D1000084D1000084D1000084D100008BC
:1000B0004D10000800000000D113000800000000EF
:1000C0005FF808F1002382B00193FA23DB00584364
:1000D000019B984201D802B07047C046C046C04656
:1000E000C046C046C046C046C046C046C046019B4A
:1000F00001330193ECE7002382B001934000019BA0
:10010000984201D802B07047C046C046C046C046BB
:10011000C046C046C046C046C046C046019B0133EB
:100120000193ECE7802310B5064C1B06A3610A205F
:10013000FFF7C8FF80231B02A3613220FFF7C2FF35
:1001400010BDC0460004004810B5112001F02AFF80
:100150009620FFF7B7FF292001F024FF10BD000013
:1001600037B56B46F022DD1DD871094B094C1A805A
:10017000094B50321A808023DB03A361362001F043
:100180002FFF2800012101F045FF4023A36137BD67
:100190000000002000040048020000208022244BC0
:1001A000D202596970B50A435A6180229969520195
:1001B000204C0A439A6122681F4B13432360A823F3
:1001C00022681B0113432360FC23A2681B01134315
:1001D000A3601A4A1A4B1A80082219880A431A8007
:1001E000032299880A439A80402219880A431A8078
:1001F00001F0BEFEFFF796FF8023DB03A361114BE6
:100200001A78551EEDB2002A09D09E1C587801F0CC
:10021000E7FE2900300001F0FDFE7319F0E74023EE
:10022000A820A361FFF79CFFFFF78EFF70BDC046BB
:100230000010024000040048005000400703000086
:1002400000300140EC2400084022084B084819887F
:1002500091431980998801409980E0219888C900CC
:100260000143998019880A431A8070470030014081
:10027000FFF0FFFF4023084A51690B4353610122FD
:10028000064B9A60C046C046C046054A1A600268DE
:100290001A6018687047C0460010024000300240E3
:1002A00083830000F0B5174C01252300E6682E4239
:1002B000FCD125692D0603D5134D6560134D65608E
:1002C00001261C6934431C610024151B002D08DD28
:1002D000055B0D53DF683742FCD1A71C045BAC42C1
:1002E0000CD02022D96811420AD101211A698A430F
:1002F0001A61802219690A431A61F0BD3C00E4E7E3
:10030000DA60F2E70020024023016745AB89EFCDB8
:100310000D4B0E4A5A600E4A5A60022219690A436E
:100320001A614022586119690A431A610122D96889
:100330001142FCD102211A698A431A61802219698B
:100340000A431A617047C0460020024023016745F6
:10035000AB89EFCDF8B50400FFF78CFF154D606059
:100360002988154F154EFE2912D9002338682B8095
:10037000FFF7CEFF082239682000FFF793FF3068AF
:10038000FFF7C6FF082231682000FFF78BFFF8BD9A
:1003900001313B6889B22980C90059180822200020
:1003A000FFF780FF0022AB5E3168DB00C91808222E
:1003B000EAE7C04604000020080000200C000020EE
:1003C00010B54160040001F0A1FE206010BD10B521
:1003D000040001F09BFE2368C31A60680133984251
:1003E0008041404210BD634630B55A689C681D6824
:1003F000A21A01320021AA4205D2621C9A60207022
:100400009B6819700131080030BD30B5644623681F
:1004100065685A1EA3685B1BD31A8B4200D90B0078
:10042000C118A268884203D100211800117030BDA4
:10043000551CA560057801301570F2E7F0B51C0079
:10044000002385B005000F000293984202DA0133C1
:10045000454202936123002A00D041232600DBB2EB
:100460000A3B03933900280001F0DCFE731C019362
:10047000039B5B18DBB2092901DC3031CBB233704E
:100480002800390001F048FE019E051EEADC32001A
:10049000302560420A9E811813008E420FD8029ABE
:1004A000002A02D02D221A7001330022181B1A7064
:1004B0004208A218013BA24204D105B0F0BD15705C
:1004C0000132E7E721781D78257019700134F1E7D2
:1004D00070B515008EB01C0012AB07930590049107
:1004E00006902878002821D0069B0293059B039351
:1004F000039A029B9B1A049A01330292934215D2EB
:10050000252805D0013504AB9C46FFF76CFFE8E7D2
:10051000687830280FD000230235642828D015D8F9
:10052000582834D063283AD00028ECD10698059B8F
:10053000C01A0EB070BDAB78002BF7D0303BDBB2E9
:10054000092B00D90023E8780435E6E775280FD099
:1005500078281CD07328D6D12068261D0300191ACC
:1005600001335A1E1278002AF9D104AB9C460BE0E5
:1005700000220A210093261D08AB2068FFF75EFFCA
:1005800004AB9C46010008A8FFF73FFF0EE0583877
:100590000093261D4242424108AB1021EDE720683E
:1005A00004ABC0B29C46261DFFF71DFF340098E740
:1005B0000CB407B504AB04CB0193FFF789FF03B07C
:1005C00008BC02B01847000070B5114B114C124D19
:1005D00025602360114BA36003236360104B2360ED
:1005E00001F07CFD01F090F901F08CFC0D48002138
:1005F00001F01EFA0C4801F097FC01F09DF900286B
:10060000FBDC0A4A1368013313602560F5E7C04636
:100610005555000000300040AAAA0000FF0F00005E
:10062000CCCC00008400002004260008B00000208C
:100630000123F7B5FA25504AAD0051680B435360CA
:100640004E4A3426945F3221535E90886B434C4966
:100650006543D488484361436D18E9174904490C40
:10066000491915001818C3175B045B0C1B18DB1322
:10067000C91318B20CB29BB289B25E1A0835EE8764
:10068000FA250193D68EED017543C0265788B60032
:100690007E43AD193B4EED13D5860027F65F1578E6
:1006A00050869486384FB54232D019223A80022DB6
:1006B0005ED1364E0027F25FFA27FF0157432F4ADB
:1006C000BC4606323E27D25FC027BF00574367446F
:1006D000FA175204520CD219D2133280294A2C4FE5
:1006E00015802C4D2C4A2D4EA8422EDCAC422CDC21
:1006F0002648019B00881B189BB2AB4225D8091ADB
:1007000089B2A94221D8936051613B803180F7BD05
:100710000023FE5E002E25D0013E36B23E80022D23
:1007200006D1002EC5D10632D68F184A1680D5E7DD
:10073000002DD3D10023FA5E002A17D0FA27134EDA
:10074000FF010023F25E5743C2E700217B5E936006
:100750000021735E53618023114A5B0191690B4351
:100760009361D4E7022DDED0002DB7D10026DCE75F
:10077000002DB3D1E2E7C046000002404001002056
:10078000187C00000A0100202001002090120020A7
:100790000C010020FC0F0000007400400E0100203E
:1007A0000004004880230A4ADB0251690B4353616D
:1007B000A022084BD20419680A431A601A68064935
:1007C0000A401A608022D96852050A43DA607047ED
:1007D0000010024000040048FFFFFFCF8023334A8F
:1007E0009B00916910B50B430121936153690B4341
:1007F00053610223506903435361802350699B0274
:10080000034353612A4B9868084239D0062190204F
:10081000596143319962C0050168264C214001604D
:1008200003202549D9602549486025488860254826
:10083000C86025480860C0200C688001204308601B
:10084000802190694902014391612F211F4AC220F2
:1008500011852639D1627831118061399180042265
:10086000996880000A439A60194B1A491A58114036
:100870008022D2010A431A50802292001A6010BDD1
:100880008021986809060143996099680029FCDB7A
:1008900001209968014204D0012118680842FCD067
:1008A000B4E7996801439960F3E7C046001002403D
:1008B000002401403CCFFFFF031500000800024068
:1008C0004024014042010020A305000000400140F7
:1008D00000E100E0FF00FFFF80230F4A9B05D16984
:1008E00010B50B43D3610D4B0D4A19680A431A60CA
:1008F00000229A605A61FFF771FF9023DB051968A7
:1009000008480140196080211A68490211431960A2
:100910001A6802401A6010BD0010024000740040C6
:1009200001000100FFFFFCFFF8B50600C817091819
:1009300041400CB211888C4206DC188870430A21B1
:1009400001F074FC00B2F8BD118901258C4201DB75
:100950001889F3E76800115A8C420DDC1F5A0948C8
:100960002D186D005B5B081BDB1B5843535BC91ADA
:1009700001F05CFCC019E1E70135052DEAD1013D2C
:10098000ECE7C046FFFFFF7FF7B506004B4C4C4F2E
:10099000012903D1002020603860FEBD494B0321AE
:1009A0001878494D421C1A7001F03CFCC9B289000C
:1009B0004E516A682B68A8689B18C018032100B2C2
:1009C00001F034FC414A424913000833DB8F06B280
:1009D0005B1840499BB28B4202D823689B19236065
:1009E0003D4B2168994201DD013323603B4B216877
:1009F000994201DA3A4B236096203A23D35E800075
:100A0000DD0FED186D102900364B374AFFF78CFFCC
:100A1000364A29000190364B7D20FFF785FF236879
:100A20006421584301F002FC324A29000400324B91
:100A30003248FFF779FF3B686421F31A584301F00D
:100A4000F5FB2F4A1378591C117001212D4A0B40D8
:100A50009B00985028CAED182B4B63311D606B46E4
:100A60009888704301F0E2FB284A0419E80F451901
:100A70006D10274B94461268641926481C60A41A0E
:100A8000E117008865184D40854203DD002C13DD19
:100A900012181A60204A1868904201DD01321A606B
:100AA0001E4A1868904201DA1D4A1A6018686346A7
:100AB0003E60186000B270E7121AEAE728010020D1
:100AC0001001002008010020FC000020400100204F
:100AD000CF0700009E0F00000F030000F1FCFFFF96
:100AE000F0FCFFFF580000204E00002026000020F0
:100AF00030000020120000201C000020C83200003E
:100B0000F8000020B8000020B400002014010020EC
:100B10001C01002010000020D30300002DFCFFFF6B
:100B20002CFCFFFFF8B503880600002B08D07E22BE
:100B3000FF32934200D1C2E000230380032048E04B
:100B40007F4801F017F9B5227E4C030052002100C6
:100B5000022001F0DFF800F0CFFE7B4B18707B48DD
:100B600001F008F9B722030052002100022001F031
:100B7000D1F800F02DFB764D280001F0FBF8B822EB
:100B8000030052002100022001F0C4F8714801F076
:100B9000F1F8B922030052002100022001F0BAF856
:100BA000FFF79AFE01F032F9280001F0E3F876220F
:100BB0000300FF322100022001F0ACF80122664B55
:100BC000142166481A7000F0E3FA7E230120FF33F7
:100BD0003380F8BD23708023AA699B051343AB6162
:100BE0008EE001224834237893432370EDE7564B7F
:100BF0001B788B42E9D1594F380000F0D1FA002818
:100C000003D01421380000F0C3FA2378022B4ED110
:100C1000AF23628C9B009A4202D82B8A5B0446D495
:100C20004F4FA31C0022B85E3E229B5E00211B1882
:100C3000D80FC318608F5B10C01A00B2FFF7A4FE74
:100C40003A22A35E0500D90FC9184910454A464B00
:100C50000A20FFF769FE3222A35E3421625E64211E
:100C60009B1A584301F0E2FAC823021C00B29B0011
:100C7000984200DD1A1CAA183C4DA31D12B2554320
:100C80003E22995E3A4A02344A43AA18D5176D04A7
:100C90006D0CAD18FA22ED13DD87E38F92003B80D7
:100CA000344B1988914200D88FE71A808DE70023D2
:100CB000314A06341360314AE387136085E7304DCB
:100CC000254C2B8A5B0406D5230048331A78012370
:100CD0001A4200D17EE7022323708023AA699B0178
:100CE0001343AB619023DB051A68264802401A6063
:100CF00080221868520202431A60802252009A61D0
:100D0000882900D073E77439144800F041FA237839
:100D1000012B08D19022D20513681A490B401360A9
:100D20000022194B1A80194A1368013313602200FC
:100D30007E321388002B00D153E7013B138044E738
:100D40005A2500089E25000892120020A6250008BA
:100D5000C6250008D4250008400100202C010020F1
:100D6000180100203A00002044000020F82D000067
:100D7000085200001000002028010020100100206F
:100D800000040048FFFFFCFF901200202401002017
:100D9000F0B5068891B00C90002E06D0EC2E42D013
:100DA00000230C9A03201380DFE000F0B7FE824A94
:100DB0008249834800F0DEFF8025824F824C390053
:100DC000030036220A2000F0A5FFFFF7EBFC636961
:100DD000AD022B4363617D4800F0CCFF3900030076
:100DE0003C22022000F096FF636980221D4390237D
:100DF0006561DB051968D2010A431A60802212047A
:100E00009A618023724C9B05E26880271343E3605C
:100E1000FFF7C4F96F4D7F052E70802676012B7881
:100E2000022B00D8A3E064216B4800F0B1F96B4AB3
:100E30006B4B1A606B4B5D331A789023DB05002AED
:100E400000D0A4E080329A61674A664C1368604D16
:100E500001331360E38E0D9300F0A2FF9023DB05B6
:100E60001B8A02000E932B8A9C46604B98685F6930
:100E70003221635E21000F9348310E7801210E402C
:100E80000B96A68C0A96260085363678099626009B
:100E900084363678089626780796A61D3E23F65E99
:100EA0000597069604903A23E05E03906046800B17
:100EB0008143029180210E98490001400191342321
:100EC000E15E4B4800910F9B0D9900F053FF3D49A7
:100ED00003005E220A2000F01DFF00F061FF45497B
:100EE000454B062801D0012806D10A78002A03D1F3
:100EF0001E78013272401A7008701978230005229A
:100F000084331B78334E5A43230085331B781B02EE
:100F10001A43002901D0C0218900EE20800000F092
:100F2000FBF930703378032B34D98023AA8A5B0114
:100F30005340AB82314D2B78002B05D020008430FC
:100F4000FFF708FA00232B70230084331A78002A55
:100F500001D12B321A7085342378002B01D1D23382
:100F60002370EC2301200C9A138011B0F0BDA3690B
:100F700064203343A361FFF7A5F8A36964203B43D2
:100F8000A361FFF79FF82B7801332B7047E780228E
:100F9000120458E79023DB051B8ADB0508D523786C
:100FA000022B05D08023AA695B011343AB61C1E723
:100FB0008023AA695B05F8E71026000819260008B7
:100FC000252600087A260008001002408126000825
:100FD00000040048CE010020D4010020AAAA00008D
:100FE0000030004040010020D0010020007400408B
:100FF00094260008CC010020CD0100203C010020F7
:101000000C488546002103E00B4B5B5843500431EC
:101010000A480B4B42189A42F6D30A4A02E00023D0
:1010200013600432084B9A42F9D300F0B3FBFFF788
:10103000CBFAFEE700800020B42700080000002063
:10104000B0000020B0000020D8310020FEE70000F2
:1010500010B50D4C2368002B02D10C4A136010BD53
:1010600001F054F821680B684A689B181B1A8968BC
:10107000002901D11B18F0E70A684C681219121AEE
:101080009342F4D91300F2E7E8010020E4010020C4
:1010900010B5024800F0E4FC10BDC04684000020FA
:1010A000F8B503880500002B05D0592B46D0002346
:1010B0000380032004E0254A1360592301202B807C
:1010C000F8BD21009B68002B03D10029F5D00360F7
:1010D000F3E7DE68B242F4D0002900D003609968DB
:1010E0000029EAD0C868824202D189689960F6E78F
:1010F0000B00F4E78229E0D10026144F3C68002C55
:10110000DBD02000FFF763F9002814D022008821EB
:10111000E06800F065FC00280BD1E060A368002EB9
:1011200005D0B3600023A360FFF792FFE4E73B60C4
:10113000F8E7FFF7ADFF2600A468E0E78729D9D1DB
:101140000248002103680124BDE7C046E8010020F1
:1011500010B50400FFF79CFFE3680B4A002B02D098
:101160001368002B06D1094B1B68E36013681460F9
:10117000A36004E0A34205D1044A1268DA60FFF7D5
:1011800067FF10BD9B68ECE7E8010020C402002067
:1011900010B50400FFF714F92000FFF7D9FF10BDC8
:1011A000C068434258417047024B1868431E98413B
:1011B0007047C046E8010020034B1B68181E01D091
:1011C000024B18687047C046E8010020E401002087
:1011D00080233B4A9B04D16930B50B43D361394B23
:1011E00039491A680A401A60A022196812030A4392
:1011F0001A604422596A0A435A620122334B196821
:101200001143196059681142FCD002200124196869
:1012100081431960D8692E490143D9611968914306
:1012200019605A682242FCD18020872180001A5818
:10123000890022431A505D58264A2A435A50902268
:10124000254992009950254908329950244908327D
:10125000995024490832995023490832995023491A
:10126000083299502249083299502249083299503F
:1012700021490832995021490832995020490832B1
:1012800099502049083299501F49083299501F49F6
:10129000083299501A58A2431A50122259691D3027
:1012A0000A435A611A4BFF301A581A4911408022DA
:1012B00012040A431A508022D2051A6030BDC0467B
:1012C0000010024000040048FFFFF0FF00640040EF
:1012D0000B002300FF3F0000C046E0FF0040E0FF9E
:1012E0008042E0FF0083E0FF0043E0FF4044E0FF76
:1012F00000C1E0FFC061E0FF0042E0FFA082E0F932
:1013000000A0E0FFC07600FE404500FE808400FEA5
:1013100000E100E0FFFF00FFF7B580271B4DFF0451
:101320002C003E001A4B0192AA683A4202D1013BBE
:10133000002BF9D1A368174D334212D0C2230826DF
:101340005B00E650019A0433E1500433E250430558
:1013500001201843C0235B00E05000232B70287845
:10136000FEBD2B780C4801332B70A169A26800F0F8
:1013700001FDE42203000949022000F0CBFCFFF745
:1013800027FFA3681E43A660E9E7C046006400404B
:1013900040420F00EC0100202B270008882700089E
:1013A0000A4B9A6852010FD5C22208215200995067
:1013B000283104329950002104329950420501200D
:1013C0001043C022520098507047C046006400404D
:1013D000D82370B5C74C5B00E258C749520D93B291
:1013E0008A421AD1DC20400021582358C34D1B0AE1
:1013F0000902C34A4919DBB25B1853872358C14815
:101400001B0C5B199387C04B0022197800F0E8FA97
:101410002023E2681343E36070BDBC498A4206D1D1
:10142000DE235B00E258B64B0133DA77F0E7E422C3
:101430009200934207D1DE235B00E258B04B120AC0
:101440005D331A70E4E7B24A93420CD1DC235B00AF
:10145000E158AB4B1A005E321170DE225200A258E6
:101460005F33120EEDE785229200934210D1DC2308
:101470005B00E058E35800061B0ADBB2000CC01802
:101480000A230C21584300F047FE9D4B5884BFE7C8
:101490008022920093421AD1FF21483AA358A058C3
:1014A0001B0A000E8B430343DE20954A400025585B
:1014B000938423582D021B0A0B405B191385235874
:1014C00020581B0A8B43000E0343D384A0E78222DB
:1014D000920093420AD1DE235B00E258E3581202E5
:1014E0001B0ADBB29B18864A538591E78322D20000
:1014F000934208D1DC235B00E358814A1B0C323B4A
:101500004932137084E78622920093420CD1DC2189
:101510007B4A4900100063584B301B031B0F0370BC
:1015200063585C329B0FECE77A4A93420AD1DE2380
:10153000FF205B00E258E3587149024003408A856E
:10154000CB8565E7744A934207D1DE235B00E358FD
:101550006B4A5B02DB0F3032D3E7C122D2009342E9
:1015600018D1DE23FF225B00E058E358000A104048
:101570001B0C1340624D0002C018052100F0CCFD89
:101580002B004C331880DC235B00E3584A35283BA2
:101590002B703DE7614A934223D1594B14211A0025
:1015A0007E321180A531FF3162585D485201520DE3
:1015B0001218981CC287625859485205520D1218C9
:1015C000DA87625819001204D20E48310A70DE22FE
:1015D00019005200A05864310870A2586533120AED
:1015E0002FE78422920093420ED1DC23FF215B007F
:1015F000E058553B000CFF3B0840584300F08CFD81
:101600003F4B5433188003E7464A934207D1DE2309
:101610005B00E3583A4A5B035B0F603271E7424A72
:10162000934209D1DC235B00E258354B9A66DE22F7
:101630005200A258DA66EBE63C4A93421AD1F020F7
:101640006E3AA358A15800012D4A1B02090A034013
:10165000C9B20B43110058310B80DC2310005B0032
:10166000E158E1585630090E01800321E3585B32FE
:101670000B4046E72E4A93420ED1DC21204A490016
:101680001000635861301B079B0F03706358623270
:101690005B045B0E143334E7A022D200934200D0E7
:1016A000B6E6DC2330225B00E3581340102B03D155
:1016B000C020C000FFF774FEA0221E4D1E492888DE
:1016C000D20006018B195A80DA225200A25801304A
:1016D000D2B27254DC225200A258FA219A60DE2261
:1016E0005200A25880B2DA60490000F09BFD2980C8
:1016F0008EE6C046006400403602000000F0FFFFA6
:10170000400100206400002092120020220200000C
:101710000E0300001504000025040000B6030000BD
:1017200000FCFFFF24040000660300002A02000002
:101730002B020000EE010020981200201122124B13
:1017400012491A60124B5A680A405A60A02259681E
:1017500092030A435A608022196852040A431A60AD
:101760008022920419681142FCD003215A688A43EE
:101770005A60022259680A430C215A605A680A408A
:10178000082AFBD17047C04600200240FFFFC0FF7F
:10179000001002400121124B10B51A6811480A438B
:1017A0001A605A6802405A601A680F4802401A606C
:1017B0001A680E4802401A605A680D4802400F200D
:1017C0005A60DA6A8243DA621A6B0A4802401A6384
:1017D0005A6B8A435A6300229A60FFF7AFFF10BD2D
:1017E000001002400CB8FF08FFFFF6FEFFFFFBFFF2
:1017F000FFFFC0FFACFEFFFF836870B504000D0063
:10180000002B0FD00949086002210C30817029009B
:1018100098470238012801D9832D04D121002000E6
:1018200000F00EF870BD0123A373FBE7C402002093
:10183000837B10B5DB0701D5FFF7DEFF10BD00008D
:10184000F7B51E4F1E4E3D6833682C000191009382
:10185000844204D0002C00D1F7BD2468F8E7002CA6
:10186000FAD0A37B002B0FD00023A373002D13D13C
:10187000A368002B08D0019A944205D02000346060
:101880002A0083210C3098473B689C420ED1236884
:101890003B60009B3360DFE7AC4204D0220087212D
:1018A0002800FFF7C5FF2D68E0E71300002BF0D0FC
:1018B0001A689442F9D122681A60EAE7C802002047
:1018C000C4020020002270B50125094B1A70094B93
:1018D0001C68002C00D170BDE37B002B06D00022D9
:1018E000A573E27382212000FFF786FF2468F0E7EA
:1018F000C0020020C8020020024B1878421C1A7057
:101900007047C046B90200208A22064B1A70002395
:10191000054A1370054A1370054A1360054A13609F
:101920007047C046B9020020B8020020BA02002069
:10193000C8020020C4020020F8B5214D2B78002BEE
:1019400001D0FFF7BFFF1F4B1C789C46002C1CD01A
:101950000C201D4F1D4A3B781D4E5843815C1018CA
:10196000317042681B4E013332600F2633403B70AA
:1019700063468068013C1C70002819D1164C174B37
:101980001B6823602368002B04D10E4A2B78107843
:10199000C018F8BD2B78002B01D0FFF793FF0C4B3C
:1019A000206819780B4B1A68FFF742FF2368E7E7B6
:1019B000812901D101238373FFF73AFFE5E7C04690
:1019C000C0020020BA020020B8020020F801002066
:1019D000F4010020F0010020BC020020C802002019
:1019E000F0B50B4E01243378102B0ED0094C0C2788
:1019F00025780F245D1925407D43074C0133295577
:101A000064196260A060002433702000F0BDC046FD
:101A1000BA020020B8020020F801002070B5034C83
:101A20002568FFF705FF256070BDC046C402002091
:101A300070B50A4C0A0025682B0083420BD0002B9E
:101A40000AD1002807D0012105608173838180318C
:101A50002060FFF7E3FF70BD1B68EEE7C8020020BF
:101A6000002807D0837B013B012B03D80123024AC6
:101A7000C37313707047C046C00200200023036088
:101A8000704700687047036810B50022002B07D12B
:101A900010BD13600AE01C681A00002CF8D0230067
:101AA0009942F8D10B68002AF3D1036000230B6040
:101AB000EEE700001249134A0868136830B59842EF
:101AC00015D09220104B114C186011489860106886
:101AD000D8601568086885420AD208681268821AB8
:101AE0005A600A682260012219680A431A6030BDF0
:101AF00010680849084A8A18121A5A602160F2E7E9
:101B0000980000209400002044000240CC020020F5
:101B100028480040D1030020B80B00008022204B51
:101B2000D202D969C2200A43DA6159691D4A80008C
:101B30000A435A61A0231C4A1B0211680B4313601D
:101B4000D0221A4B52009A811968A03AFF3A0A43F0
:101B50001A6080229A601968783A0A431A60144B16
:101B600014491A680A401A608022196892030A43CD
:101B70001A60C022996892030A439A608022596AC7
:101B8000D2000A435A628023C0210B4A1B01136012
:101B9000135809061B021B0A0B4313507047C0461B
:101BA0000010024001000400A8000240004800406C
:101BB00000040048FFFFCFFF00E100E080220A4B55
:101BC000520110B55A60094B1A68094B1A60094A4C
:101BD00012681B689A4203D10022074B1A7010BD8D
:101BE000FFF768FFFBE7C04600000240CC02002080
:101BF0009400002098000020D0020020234BF7B56D
:101C00001C68234B07001D68AC4232D8214E224B82
:101C1000641BF3185B1B0193204BE4188C4200D922
:101C20000C00019BA34218D21A003900280000F0D2
:101C3000E9FB019B3000E51A2A00F91800F0E2FBED
:101C40007519134B1D60164B1A78002A03D1013207
:101C50001A70FFF72FFF2000FEBD28002200390078
:101C600000F0D0FB0C4B2D19F3189D42E9D1350043
:101C7000E7E7641B013C8C4200D90C0028002200DD
:101C8000390000F0BFFB2D19DBE7C04694000020AF
:101C900098000020D1030020B80B0000B70B000013
:101CA000D002002010B5054B054A064914680868A3
:101CB000844202D0013B002BF8D110BD61EA000044
:101CC00098000020940000200FB437B58021104CFC
:101CD00006AB04CB490020000193FEF7F9FB20007E
:101CE00000F0D2FB0D230A22235423185A7000223D
:101CF000050020009A7000F0C7FB01002000FFF7EC
:101D00007DFFFFF7CFFF28003EBC08BC04B018479A
:101D1000D1020020F0B5C5B015001F000C0000F086
:101D2000F5F9060000F0F2F9FA218900039700F0B6
:101D300079FA08000A2100F0EFF9FA2102908900EF
:101D4000300000F0E9F9230001900095074AFF21D7
:101D500004A8FEF72DFC10230022FF336B4404A9D6
:101D600003481A70FFF7B0FF45B0F0BD8E2700089A
:101D70009F2700080FB413B5084C04AB04CBFF2118
:101D800020000193FEF7A4FB23000022FF33200074
:101D90001A7016BC08BC04B01847C046890F002052
:101DA000134B144ADB8E0020934220D8DA21124ACA
:101DB00049009A1892B204308A4218D90F4A023068
:101DC0009A18E42A13D90E4A42399A1892B2013865
:101DD0008A420CD90B4A0C499A1892B203388A42AB
:101DE00005D9B82201305200934200D8023870471A
:101DF00040010020AB0A000009F7FFFFEEF7FFFFEC
:101E000061F9FFFFE5FBFFFF830200000222174B91
:101E10001748D9690A43DA6180225969D2020A4314
:101E20005A618022596992020A4303215A61114B77
:101E30001A688A431A6001221968114319609A616D
:101E4000196A1143196200210B4B1985D862D963B5
:101E5000988B6031014399838021188C490001439C
:101E6000198419880A431A807047C046001002403E
:101E7000102700000004004800040040F8B5038863
:101E800005001600002B05D04B2B18D00023038033
:101E900003200BE01848FFF7F4FD0400002C06D1E6
:101EA0000122164B1A704B2301202B80F8BD201DF8
:101EB000A168FFF76DF92468F0E7246807E00120C6
:101EC0008829F3D10C4F3800FFF7DBFD0400002C0C
:101ED000E9D0231D9E42F0D138002100FFF7D3FD49
:101EE000074E636937683360A369002B01D0E0694E
:101EF00098473760D7E7C0468C100020901000202C
:101F0000C402002010B50024044B05481C70FFF7E4
:101F1000B5FD21000348FFF78BFD10BD9010002098
:101F20008C1000209C00002010B504000434231FF6
:101F30001868002800D110BD0021FFF779FDF5E7F2
:101F400070B504000D00FEF77FF90122054B1968FA
:101F50001142FCD1044A5D609A60044ADC601A6058
:101F600070BDC046300002400C30014093100000AC
:101F70000123C220084A800051690B435361074B7B
:101F800007491A5811408022D2030A431A5080226E
:101F9000D2001A607047C0460010024000E100E025
:101FA000FFFF00FF13B580226B460B4CD203D871A4
:101FB000A26180220733120401211800A261FFF7F9
:101FC000BFFF012305490A681A42FCD11E20FEF713
:101FD00092F84023A36113BD000400483000024082
:101FE00007B580216B46094AD8710904073391610E
:101FF00018000121FFF7A4FF012305490A681A42CE
:10200000FCD11E20FEF777F807BDC046000400484B
:10201000300002408022074B10B59A61FFF790FF15
:10202000012305490A681A42FCD11E20FEF763F815
:1020300010BDC04600040048300002400D4B1A6835
:10204000920608D51022012059680A430A495A60AD
:102050000A6882430A601A68920509D58022596885
:1020600052000A4301215A60044A13688B431360EB
:102070007047C046000002401C0002403000024091
:102080008022114B10B51B68104B114C92045A6002
:10209000236801332360FFF787F8002806D0FFF795
:1020A0008BF82368984201D8FEF7F2FF094A1368BB
:1020B000013B1360002B06D107490B6801330B600D
:1020C000FA239B00136010BD10E000E000ED00E07B
:1020D00094100020AC00002098100020C022084975
:1020E00012060B6A1B021B0A134300220B62054BEC
:1020F0009A60054A5A6003221A6062B67047C04669
:1021000000ED00E010E000E070170000014B1868DF
:102110007047C04694100020002243088B4274D3BD
:1021200003098B425FD3030A8B4244D3030B8B42D8
:1021300028D3030C8B420DD3FF22090212BA030CE1
:102140008B4202D31212090265D0030B8B4219D3C2
:1021500000E0090AC30B8B4201D3CB03C01A5241E2
:10216000830B8B4201D38B03C01A5241430B8B422A
:1021700001D34B03C01A5241030B8B4201D30B0313
:10218000C01A5241C30A8B4201D3CB02C01A52413A
:10219000830A8B4201D38B02C01A5241430A8B42FD
:1021A00001D34B02C01A5241030A8B4201D30B02E6
:1021B000C01A5241CDD2C3098B4201D3CB01C01A00
:1021C000524183098B4201D38B01C01A524143090A
:1021D0008B4201D34B01C01A524103098B4201D3F8
:1021E0000B01C01A5241C3088B4201D3CB00C01A65
:1021F000524183088B4201D38B00C01A52414308DD
:102200008B4201D34B00C01A5241411A00D2014601
:10221000524110467047FFE701B5002000F0F0F88A
:1022200002BDC0460029F7D076E7704703460B434E
:102230007FD4002243088B4274D303098B425FD3BF
:10224000030A8B4244D3030B8B4228D3030C8B42EB
:102250000DD3FF22090212BA030C8B4202D31212D1
:10226000090265D0030B8B4219D300E0090AC30BA6
:102270008B4201D3CB03C01A5241830B8B4201D353
:102280008B03C01A5241430B8B4201D34B03C01A3C
:102290005241030B8B4201D30B03C01A5241C30AB4
:1022A0008B4201D3CB02C01A5241830A8B4201D325
:1022B0008B02C01A5241430A8B4201D34B02C01A0F
:1022C0005241030A8B4201D30B02C01A5241CDD2B4
:1022D000C3098B4201D3CB01C01A524183098B42FF
:1022E00001D38B01C01A524143098B4201D34B01E8
:1022F000C01A524103098B4201D30B01C01A52414B
:10230000C3088B4201D3CB00C01A524183088B42D1
:1023100001D38B00C01A524143088B4201D34B00BA
:10232000C01A5241411A00D201465241104670472C
:102330005DE0CA0F00D04942031000D34042534031
:1023400000229C4603098B422DD3030A8B4212D3F1
:10235000FC22890112BA030A8B420CD38901921123
:102360008B4208D3890192118B4204D389013AD060
:10237000921100E08909C3098B4201D3CB01C01A35
:10238000524183098B4201D38B01C01A5241430948
:102390008B4201D34B01C01A524103098B4201D336
:1023A0000B01C01A5241C3088B4201D3CB00C01AA3
:1023B000524183088B4201D38B00C01A5241D9D2BB
:1023C00043088B4201D34B00C01A5241411A00D23C
:1023D0000146634652415B10104601D34042002B38
:1023E00000D54942704763465B1000D3404201B5B7
:1023F000002000F005F802BD0029F8D016E770476C
:102400007047C046F0B505000F2A2FD90B000343D3
:102410009B0734D116000C000300103E350901352E
:102420002D01451927681F6067685F60A7689F6076
:10243000E7681034DF6010339D42F3D10F239E43D1
:102440001036851989191340032B1AD91E1F002332
:10245000B4080134A400CF58EF500433A342FAD19A
:102460000324A643331D2240C918ED18002A05D0C5
:102470000023CC5CEC5401339342FAD1F0BD05004B
:10248000F6E71A00F2E7C04610B5830725D00378B7
:10249000002B24D00300032102E01A78002A1AD06E
:1024A00001330B42F9D119680E4A0F4C8A188A433E
:1024B000224206D1043319680A4A8A188A43224202
:1024C000F8D01A001B78002B03D0013211780029B4
:1024D000FBD1101A10BD181AFCE70300E3E7002037
:1024E000F8E7C046FFFEFEFE8080808006CB392CD8
:1024F00000340204CF00C93004E885107A03EA00F2
:102500000005ED6403128102F72002C01B02C10026
:1025100003C5303002C7B7023608023A5503B1008E
:102520001A03B60AA202F20002260110E00F2A28BE
:10253000080E0854A9430A0F0000000010E100151E
:10254000170711062B563C05100F3F3F0F052B00B8
:1025500000013F022A000000EF00537461727420F2
:1025600073746565722070726F6365737300463AA9
:102570005C646174615C736F66745C62616C656EEF
:102580006F5C63616E5C4D6973686B614F505C7426
:1025900072756E6B5C7372635C626173655C73749D
:1025A0006565722E63001B5B33383B353B32303838
:1025B0006D496E69742043414E20627573202E2E42
:1025C0002E1B5B306D001B5B33323B316D4F4B1B61
:1025D0005B306D001B5B33383B353B3230386D4927
:1025E0006E697420636F6E74726F6C202E2E2E1BBA
:1025F0005B306D0053746565722070726F63657334
:10260000730000007400002064000020000000003F
:1026100030383A34363A3038004A616E2032312050
:1026200032303234001B5B33323B316D5374617294
:1026300074206669726D776172652066726F6D20B5
:1026400025732025731B5B306D00463A5C64617412
:10265000615C736F66745C62616C656E6F5C636114
:102660006E5C4D6973686B614F505C7472756E6B14
:102670005C7372635C626173655C6D61696E2E632D
:10268000005374617274206D656E752070726F6393
:10269000657373001B5B33333B316D5342493D25FA
:1026A00064282564292025642F25642052454C4147
:1026B000593D256420425554544F4E3D25642073A6
:1026C000746565723D2564204441433D25642F2592
:1026D00064207461726765744D6F6D656E743D251D
:1026E000642C2073746174653D2564206B6F65668E
:1026F000733D25642D25642073706565643D2564F4
:102700002C206F704163746976653D25641B5B30D6
:102710006D004D656E752070726F63657373004553
:1027200076656E742074696D6572001B5B33313B96
:10273000316D73656E64204552524F522043414EB5
:102740002045535220307825782C20545352203085
:102750007825781B5B306D00463A5C646174615C7F
:10276000736F66745C62616C656E6F5C63616E5CF6
:102770004D6973686B614F505C7472756E6B5C73FE
:1027800072635C626173655C63616E2E63002573C6
:102790002825303464292025642C2564733A2025AB
:1027A00073004374696D65722070726F6365737333
:0127B0000028
:1027B400F0004001FF00000000E8030800F00308F7
:1027C400E803000007000F001E0046000F000F0082
:1027D4000D000C000A000000030007001E00460064
:1027E4000A000A000A0005000500000005000A00AE
:1027F40014005A0046000A00000000000000000017
:1028040007000F001E004600280028001E001900C3
:102814001400000000000000F4250008250B000847
:10282400000000000000000012270008910D0008BD
:1028340000000000000000001F270008A11000088D
:1028440000000000D1030020D1030020000000009C
:10285400A22700087D1E000800000000E803000015
:0400000508000000EF
:00000001FF
